:0300000002025A9F
:0C025A00787FE4F6D8FD7581310202A126
:10052F00C2B3C2B48FA07F0312056DD2B57F031281
:05053F00056DC2B522AC
:10054400D2B3C2B48FA07F0312056DD2B57F03125C
:05055400056DC2B52297
:100559007F3812052F7F0C12052F7F0612052F7F7A
:040569000102052F57
:1004D9008F2E8B2F8A308931ED7006E52E2480808E
:1004E90004E52E24C0FF12052FAB2FAA30A9311223
:1004F9000126FF601012054474012531F531E435F8
:0605090030F53080E42211
:03000600DFFE22F8
:10056D00AE07AF061EEF60077FF512000680F3227F
:08057D00804020100804020177
:1003D400EF7025D287C281C282FEEDC41313135479
:1003E4000124FF9280ED25E0FDD281C2810EBE087A
:1003F400E9D282C282C28722D284C285C286E4FE46
:10040400EDC4131313540124FF9283ED25E0FDD2B0
:0D04140085C2850EBE08E9D286C286C2846C
:0104210022B8
:060467008B2E8A2F893064
:10046D00E4F531F531E53190057D93FDE4FF12039F
:10047D00D4AB2EAA2FA93085318275830012013F8E
:10048D00FD0F1203D40F12056D0531E531C394082C
:02049D0040D34A
:01049F00223A
:1004A000101453657475703A2020202020722F6D2F
:1004B000696E080AFFFFFFFFFFFFFFFF0224004AEB
:1004C00002120000022C0000022800B402260100E3
:0804D000022A000002080000EE
:1002E600120559AE24AF257C037DE812016CEF247C
:1002F60030F51BAE24AF257C007D6412016C7C00BA
:100306007D0A12016CED2430F51CAE24AF257C006D
:100316007D0A12016C7C007D0A12016CED2430F519
:100326001DAE24AF257C007D0A12016CED2430F54C
:100336001E7B007A007914E4FDFF1204D975891139
:10034600D288D28CD28E758CF8758A50758DFF75D1
:100356008B9CD2AFD2ABD2A9D2A87B007A00790A05
:0803660012046712001E80F270
:10001E0030B60201A17F3212050F20B67674082584
:10002E0025F525E43524F524D3E5259482E524949D
:10003E00004006752400752582AE24AF257C037D15
:10004E00E812016CEF2430F51BAE24AF257C007D49
:10005E006412016C7C007D0A12016CED2430F51CDB
:10006E00AE24AF257C007D0A12016C7C007D0A1245
:10007E00016CED2430F51DAE24AF257C007D0A12F7
:10008E00016CED2430F51E7B007A007914E4FDFF3F
:10009E001204D930B70221257F3212050F20B7770F
:1000AE0074F82525F52574FF3524F524C3E525942C
:1000BE0032E52494005006752400752532AE24AF27
:1000CE00257C037DE812016CEF2430F51BAE24AFC6
:1000DE00257C007D6412016C7C007D0A12016CEDA2
:1000EE002430F51CAE24AF257C007D0A12016C7CF9
:1000FE00007D0A12016CED2430F51DAE24AF257C77
:10010E00007D0A12016CED2430F51E7B007A007919
:08011E0014E4FDFF1204D922D4
:0300030002000EEA
:0D000E00C0E0052DE52D7002052CD0E0327C
:03000B000201C12E
:1001C100C0E0C0F0C083C082C0D075D000C000C004
:0D01D10001C002C003C004C005C006C00785
:1001DE00758CF8758A500509E50970020508D394E7
:1001EE00F4E5089401404AAE2CAF2D7C007D06123A
:1001FE00016C8E128F13750800750900752C007531
:10020E002D00D3E5139525E5129524400AE5291511
:10021E0029701715288013C3E5139525E51295242B
:10022E0050080529E52970020528AF13AE121203F6
:01023E006E51
:10023F00D007D006D005D004D003D002D001D00013
:0B024F00D0D0D082D083D0F0D0E032BD
:03001B00020422BA
:10042200C0E0C0D075D000C000758DFF758B9CE513
:1004320029252BF52BE528352AF52AD3E52B9527F7
:10044200E5266480F8E52A6480984010D291E52B75
:100452009527F52BE52A9526F52A8002C291D00030
:05046200D0D0D0E03213
:10036E0079FEC3EF9432EE940050047E007F32EF9C
:10037E0024CEFFEE34FFFEEF7803CEC313CE13D898
:10038E00F9FF7D077C0074092DF8E6FB740A2DF841
:10039E00A603ED1D70011CED4C70EBD3EF9407EE30
:1003AE00940040047E007F07C374089FFDE9A805F2
:1003BE00088002C313D8FCFDE9A807088002C333E6
:0503CE00D8FC4DF50A0A
:0103D3002207
:10050F007E00D3EF9400EE940040147D327C00ED1A
:0F051F001D70011CED4C70F7EF1F70E61E80E39E
:01052E0022AA
:100266000202E6E493A3F8E493A34003F68001F2C6
:1002760008DFF48029E493A3F85407240CC8C33399
:10028600C4540F4420C8834004F456800146F6DF68
:10029600E4800B01020408102040809004A0E47E54
:1002A600019360BCA3FF543F30E509541FFEE4935D
:1002B600A360010ECF54C025E060A840B8E493A324
:1002C600FAE493A3F8E493A3C8C582C8CAC583CA4F
:1002D600F0A3C8C582C8CAC583CADFE9DEE780BE07
:0104D8000023
:10012600BB010689828A83E0225002E722BBFE02D7
:09013600E32289828A83E493220A
:10013F00BB010CE58229F582E5833AF583E0225075
:10014F0006E92582F8E622BBFE06E92582F8E222BF
:0D015F00E58229F582E5833AF583E49322D9
:10016C00BC000BBE0029EF8DF084FFADF022E4CC77
:10017C00F875F008EF2FFFEE33FEEC33FCEE9DEC40
:10018C00984005FCEE9DFE0FD5F0E9E4CEFD22ED86
:10019C00F8F5F0EE8420D21CFEADF075F008EF2FD0
:1001AC00FFED33FD4007985006D5F0F222C398FDC1
:0501BC000FD5F0EA225E
:00000001FF
